{
  "_format": "hh-sol-artifact-1",
  "contractName": "VehiclePassportiNFT",
  "sourceName": "contracts/Lock.sol",
  "abi": [
    {
      "inputs": [],
      "stateMutability": "nonpayable",
      "type": "constructor"
    },
    {
      "inputs": [],
      "name": "AccessControlBadConfirmation",
      "type": "error"
    },
    {
      "inputs": [
        {
          "internalType": "address",
          "name": "account",
          "type": "address"
        },
        {
          "internalType": "bytes32",
          "name": "neededRole",
          "type": "bytes32"
        }
      ],
      "name": "AccessControlUnauthorizedAccount",
      "type": "error"
    },
    {
      "inputs": [],
      "name": "ERC721EnumerableForbiddenBatchMint",
      "type": "error"
    },
    {
      "inputs": [
        {
          "internalType": "address",
          "name": "sender",
          "type": "address"
        },
        {
          "internalType": "uint256",
          "name": "tokenId",
          "type": "uint256"
        },
        {
          "internalType": "address",
          "name": "owner",
          "type": "address"
        }
      ],
      "name": "ERC721IncorrectOwner",
      "type": "error"
    },
    {
      "inputs": [
        {
          "internalType": "address",
          "name": "operator",
          "type": "address"
        },
        {
          "internalType": "uint256",
          "name": "tokenId",
          "type": "uint256"
        }
      ],
      "name": "ERC721InsufficientApproval",
      "type": "error"
    },
    {
      "inputs": [
        {
          "internalType": "address",
          "name": "approver",
          "type": "address"
        }
      ],
      "name": "ERC721InvalidApprover",
      "type": "error"
    },
    {
      "inputs": [
        {
          "internalType": "address",
          "name": "operator",
          "type": "address"
        }
      ],
      "name": "ERC721InvalidOperator",
      "type": "error"
    },
    {
      "inputs": [
        {
          "internalType": "address",
          "name": "owner",
          "type": "address"
        }
      ],
      "name": "ERC721InvalidOwner",
      "type": "error"
    },
    {
      "inputs": [
        {
          "internalType": "address",
          "name": "receiver",
          "type": "address"
        }
      ],
      "name": "ERC721InvalidReceiver",
      "type": "error"
    },
    {
      "inputs": [
        {
          "internalType": "address",
          "name": "sender",
          "type": "address"
        }
      ],
      "name": "ERC721InvalidSender",
      "type": "error"
    },
    {
      "inputs": [
        {
          "internalType": "uint256",
          "name": "tokenId",
          "type": "uint256"
        }
      ],
      "name": "ERC721NonexistentToken",
      "type": "error"
    },
    {
      "inputs": [
        {
          "internalType": "address",
          "name": "owner",
          "type": "address"
        },
        {
          "internalType": "uint256",
          "name": "index",
          "type": "uint256"
        }
      ],
      "name": "ERC721OutOfBoundsIndex",
      "type": "error"
    },
    {
      "anonymous": false,
      "inputs": [
        {
          "indexed": true,
          "internalType": "address",
          "name": "owner",
          "type": "address"
        },
        {
          "indexed": true,
          "internalType": "address",
          "name": "approved",
          "type": "address"
        },
        {
          "indexed": true,
          "internalType": "uint256",
          "name": "tokenId",
          "type": "uint256"
        }
      ],
      "name": "Approval",
      "type": "event"
    },
    {
      "anonymous": false,
      "inputs": [
        {
          "indexed": true,
          "internalType": "address",
          "name": "owner",
          "type": "address"
        },
        {
          "indexed": true,
          "internalType": "address",
          "name": "operator",
          "type": "address"
        },
        {
          "indexed": false,
          "internalType": "bool",
          "name": "approved",
          "type": "bool"
        }
      ],
      "name": "ApprovalForAll",
      "type": "event"
    },
    {
      "anonymous": false,
      "inputs": [
        {
          "indexed": true,
          "internalType": "uint256",
          "name": "tokenId",
          "type": "uint256"
        }
      ],
      "name": "Delisted",
      "type": "event"
    },
    {
      "anonymous": false,
      "inputs": [
        {
          "indexed": true,
          "internalType": "uint256",
          "name": "tokenId",
          "type": "uint256"
        },
        {
          "indexed": false,
          "internalType": "string",
          "name": "newImageURI",
          "type": "string"
        }
      ],
      "name": "ImageUpdated",
      "type": "event"
    },
    {
      "anonymous": false,
      "inputs": [
        {
          "indexed": true,
          "internalType": "uint256",
          "name": "tokenId",
          "type": "uint256"
        },
        {
          "indexed": false,
          "internalType": "uint256",
          "name": "price",
          "type": "uint256"
        }
      ],
      "name": "Listed",
      "type": "event"
    },
    {
      "anonymous": false,
      "inputs": [
        {
          "indexed": true,
          "internalType": "uint256",
          "name": "tokenId",
          "type": "uint256"
        },
        {
          "indexed": true,
          "internalType": "address",
          "name": "owner",
          "type": "address"
        },
        {
          "indexed": false,
          "internalType": "string",
          "name": "vin",
          "type": "string"
        }
      ],
      "name": "NFTMinted",
      "type": "event"
    },
    {
      "anonymous": false,
      "inputs": [
        {
          "indexed": true,
          "internalType": "uint256",
          "name": "tokenId",
          "type": "uint256"
        },
        {
          "indexed": true,
          "internalType": "address",
          "name": "from",
          "type": "address"
        },
        {
          "indexed": true,
          "internalType": "address",
          "name": "to",
          "type": "address"
        },
        {
          "indexed": false,
          "internalType": "uint256",
          "name": "price",
          "type": "uint256"
        }
      ],
      "name": "Purchased",
      "type": "event"
    },
    {
      "anonymous": false,
      "inputs": [
        {
          "indexed": true,
          "internalType": "bytes32",
          "name": "role",
          "type": "bytes32"
        },
        {
          "indexed": true,
          "internalType": "bytes32",
          "name": "previousAdminRole",
          "type": "bytes32"
        },
        {
          "indexed": true,
          "internalType": "bytes32",
          "name": "newAdminRole",
          "type": "bytes32"
        }
      ],
      "name": "RoleAdminChanged",
      "type": "event"
    },
    {
      "anonymous": false,
      "inputs": [
        {
          "indexed": true,
          "internalType": "bytes32",
          "name": "role",
          "type": "bytes32"
        },
        {
          "indexed": true,
          "internalType": "address",
          "name": "account",
          "type": "address"
        },
        {
          "indexed": true,
          "internalType": "address",
          "name": "sender",
          "type": "address"
        }
      ],
      "name": "RoleGranted",
      "type": "event"
    },
    {
      "anonymous": false,
      "inputs": [
        {
          "indexed": true,
          "internalType": "bytes32",
          "name": "role",
          "type": "bytes32"
        },
        {
          "indexed": true,
          "internalType": "address",
          "name": "account",
          "type": "address"
        },
        {
          "indexed": true,
          "internalType": "address",
          "name": "sender",
          "type": "address"
        }
      ],
      "name": "RoleRevoked",
      "type": "event"
    },
    {
      "anonymous": false,
      "inputs": [
        {
          "indexed": true,
          "internalType": "uint256",
          "name": "tokenId",
          "type": "uint256"
        },
        {
          "indexed": false,
          "internalType": "uint256",
          "name": "newMileage",
          "type": "uint256"
        },
        {
          "indexed": false,
          "internalType": "string",
          "name": "serviceDetails",
          "type": "string"
        },
        {
          "indexed": false,
          "internalType": "string",
          "name": "dataHash",
          "type": "string"
        }
      ],
      "name": "ServiceRecordAdded",
      "type": "event"
    },
    {
      "anonymous": false,
      "inputs": [
        {
          "indexed": true,
          "internalType": "address",
          "name": "from",
          "type": "address"
        },
        {
          "indexed": true,
          "internalType": "address",
          "name": "to",
          "type": "address"
        },
        {
          "indexed": true,
          "internalType": "uint256",
          "name": "tokenId",
          "type": "uint256"
        }
      ],
      "name": "Transfer",
      "type": "event"
    },
    {
      "inputs": [],
      "name": "DEALER_ROLE",
      "outputs": [
        {
          "internalType": "bytes32",
          "name": "",
          "type": "bytes32"
        }
      ],
      "stateMutability": "view",
      "type": "function"
    },
    {
      "inputs": [],
      "name": "DEFAULT_ADMIN_ROLE",
      "outputs": [
        {
          "internalType": "bytes32",
          "name": "",
          "type": "bytes32"
        }
      ],
      "stateMutability": "view",
      "type": "function"
    },
    {
      "inputs": [],
      "name": "SERVICE_CENTER_ROLE",
      "outputs": [
        {
          "internalType": "bytes32",
          "name": "",
          "type": "bytes32"
        }
      ],
      "stateMutability": "view",
      "type": "function"
    },
    {
      "inputs": [],
      "name": "SERVICE_INTERVAL_MILEAGE",
      "outputs": [
        {
          "internalType": "uint256",
          "name": "",
          "type": "uint256"
        }
      ],
      "stateMutability": "view",
      "type": "function"
    },
    {
      "inputs": [],
      "name": "SERVICE_INTERVAL_TIME",
      "outputs": [
        {
          "internalType": "uint256",
          "name": "",
          "type": "uint256"
        }
      ],
      "stateMutability": "view",
      "type": "function"
    },
    {
      "inputs": [
        {
          "internalType": "uint256",
          "name": "_tokenId",
          "type": "uint256"
        },
        {
          "internalType": "uint256",
          "name": "_newMileage",
          "type": "uint256"
        },
        {
          "internalType": "string",
          "name": "_serviceDetails",
          "type": "string"
        },
        {
          "internalType": "string",
          "name": "_dataHash",
          "type": "string"
        }
      ],
      "name": "addServiceRecord",
      "outputs": [],
      "stateMutability": "nonpayable",
      "type": "function"
    },
    {
      "inputs": [
        {
          "internalType": "address",
          "name": "to",
          "type": "address"
        },
        {
          "internalType": "uint256",
          "name": "tokenId",
          "type": "uint256"
        }
      ],
      "name": "approve",
      "outputs": [],
      "stateMutability": "nonpayable",
      "type": "function"
    },
    {
      "inputs": [
        {
          "internalType": "address",
          "name": "owner",
          "type": "address"
        }
      ],
      "name": "balanceOf",
      "outputs": [
        {
          "internalType": "uint256",
          "name": "",
          "type": "uint256"
        }
      ],
      "stateMutability": "view",
      "type": "function"
    },
    {
      "inputs": [
        {
          "internalType": "uint256",
          "name": "_tokenId",
          "type": "uint256"
        }
      ],
      "name": "buyNFT",
      "outputs": [],
      "stateMutability": "payable",
      "type": "function"
    },
    {
      "inputs": [
        {
          "internalType": "uint256",
          "name": "_tokenId",
          "type": "uint256"
        }
      ],
      "name": "calculateTrustScore",
      "outputs": [
        {
          "internalType": "uint8",
          "name": "",
          "type": "uint8"
        }
      ],
      "stateMutability": "view",
      "type": "function"
    },
    {
      "inputs": [
        {
          "internalType": "uint256",
          "name": "_tokenId",
          "type": "uint256"
        }
      ],
      "name": "delistNFT",
      "outputs": [],
      "stateMutability": "nonpayable",
      "type": "function"
    },
    {
      "inputs": [
        {
          "internalType": "uint256",
          "name": "tokenId",
          "type": "uint256"
        }
      ],
      "name": "getApproved",
      "outputs": [
        {
          "internalType": "address",
          "name": "",
          "type": "address"
        }
      ],
      "stateMutability": "view",
      "type": "function"
    },
    {
      "inputs": [
        {
          "internalType": "uint256",
          "name": "_tokenId",
          "type": "uint256"
        }
      ],
      "name": "getMaintenanceStatus",
      "outputs": [
        {
          "internalType": "string",
          "name": "",
          "type": "string"
        }
      ],
      "stateMutability": "view",
      "type": "function"
    },
    {
      "inputs": [
        {
          "internalType": "bytes32",
          "name": "role",
          "type": "bytes32"
        }
      ],
      "name": "getRoleAdmin",
      "outputs": [
        {
          "internalType": "bytes32",
          "name": "",
          "type": "bytes32"
        }
      ],
      "stateMutability": "view",
      "type": "function"
    },
    {
      "inputs": [
        {
          "internalType": "uint256",
          "name": "_tokenId",
          "type": "uint256"
        }
      ],
      "name": "getServiceHistoryCount",
      "outputs": [
        {
          "internalType": "uint256",
          "name": "",
          "type": "uint256"
        }
      ],
      "stateMutability": "view",
      "type": "function"
    },
    {
      "inputs": [
        {
          "internalType": "uint256",
          "name": "_tokenId",
          "type": "uint256"
        },
        {
          "internalType": "uint256",
          "name": "index",
          "type": "uint256"
        }
      ],
      "name": "getServiceRecord",
      "outputs": [
        {
          "components": [
            {
              "internalType": "string",
              "name": "details",
              "type": "string"
            },
            {
              "internalType": "uint256",
              "name": "timestamp",
              "type": "uint256"
            },
            {
              "internalType": "string",
              "name": "dataHash",
              "type": "string"
            }
          ],
          "internalType": "struct VehiclePassportiNFT.ServiceRecord",
          "name": "",
          "type": "tuple"
        }
      ],
      "stateMutability": "view",
      "type": "function"
    },
    {
      "inputs": [
        {
          "internalType": "uint256",
          "name": "_tokenId",
          "type": "uint256"
        }
      ],
      "name": "getVehicleDetails",
      "outputs": [
        {
          "components": [
            {
              "internalType": "string",
              "name": "vin",
              "type": "string"
            },
            {
              "internalType": "string",
              "name": "make",
              "type": "string"
            },
            {
              "internalType": "string",
              "name": "model",
              "type": "string"
            },
            {
              "internalType": "uint256",
              "name": "year",
              "type": "uint256"
            },
            {
              "internalType": "uint256",
              "name": "purchasePrice",
              "type": "uint256"
            },
            {
              "internalType": "uint256",
              "name": "purchaseDate",
              "type": "uint256"
            },
            {
              "internalType": "uint256",
              "name": "currentMileage",
              "type": "uint256"
            },
            {
              "internalType": "uint256",
              "name": "lastServiceMileage",
              "type": "uint256"
            },
            {
              "internalType": "uint256",
              "name": "lastServiceDate",
              "type": "uint256"
            },
            {
              "internalType": "string",
              "name": "imageURI",
              "type": "string"
            }
          ],
          "internalType": "struct VehiclePassportiNFT.VehicleData",
          "name": "",
          "type": "tuple"
        }
      ],
      "stateMutability": "view",
      "type": "function"
    },
    {
      "inputs": [
        {
          "internalType": "address",
          "name": "account",
          "type": "address"
        }
      ],
      "name": "grantDealer",
      "outputs": [],
      "stateMutability": "nonpayable",
      "type": "function"
    },
    {
      "inputs": [
        {
          "internalType": "bytes32",
          "name": "role",
          "type": "bytes32"
        },
        {
          "internalType": "address",
          "name": "account",
          "type": "address"
        }
      ],
      "name": "grantRole",
      "outputs": [],
      "stateMutability": "nonpayable",
      "type": "function"
    },
    {
      "inputs": [
        {
          "internalType": "address",
          "name": "account",
          "type": "address"
        }
      ],
      "name": "grantServiceCenter",
      "outputs": [],
      "stateMutability": "nonpayable",
      "type": "function"
    },
    {
      "inputs": [
        {
          "internalType": "bytes32",
          "name": "role",
          "type": "bytes32"
        },
        {
          "internalType": "address",
          "name": "account",
          "type": "address"
        }
      ],
      "name": "hasRole",
      "outputs": [
        {
          "internalType": "bool",
          "name": "",
          "type": "bool"
        }
      ],
      "stateMutability": "view",
      "type": "function"
    },
    {
      "inputs": [
        {
          "internalType": "address",
          "name": "owner",
          "type": "address"
        },
        {
          "internalType": "address",
          "name": "operator",
          "type": "address"
        }
      ],
      "name": "isApprovedForAll",
      "outputs": [
        {
          "internalType": "bool",
          "name": "",
          "type": "bool"
        }
      ],
      "stateMutability": "view",
      "type": "function"
    },
    {
      "inputs": [
        {
          "internalType": "uint256",
          "name": "_tokenId",
          "type": "uint256"
        },
        {
          "internalType": "uint256",
          "name": "_price",
          "type": "uint256"
        }
      ],
      "name": "listNFT",
      "outputs": [],
      "stateMutability": "nonpayable",
      "type": "function"
    },
    {
      "inputs": [
        {
          "internalType": "uint256",
          "name": "",
          "type": "uint256"
        }
      ],
      "name": "listingPrice",
      "outputs": [
        {
          "internalType": "uint256",
          "name": "",
          "type": "uint256"
        }
      ],
      "stateMutability": "view",
      "type": "function"
    },
    {
      "inputs": [
        {
          "internalType": "address",
          "name": "_owner",
          "type": "address"
        },
        {
          "internalType": "string",
          "name": "_vin",
          "type": "string"
        },
        {
          "internalType": "string",
          "name": "_make",
          "type": "string"
        },
        {
          "internalType": "string",
          "name": "_model",
          "type": "string"
        },
        {
          "internalType": "uint256",
          "name": "_year",
          "type": "uint256"
        },
        {
          "internalType": "uint256",
          "name": "_purchasePrice",
          "type": "uint256"
        },
        {
          "internalType": "uint256",
          "name": "_initialMileage",
          "type": "uint256"
        },
        {
          "internalType": "string",
          "name": "_imageURI",
          "type": "string"
        }
      ],
      "name": "mintVehicle",
      "outputs": [
        {
          "internalType": "uint256",
          "name": "",
          "type": "uint256"
        }
      ],
      "stateMutability": "nonpayable",
      "type": "function"
    },
    {
      "inputs": [],
      "name": "name",
      "outputs": [
        {
          "internalType": "string",
          "name": "",
          "type": "string"
        }
      ],
      "stateMutability": "view",
      "type": "function"
    },
    {
      "inputs": [
        {
          "internalType": "uint256",
          "name": "tokenId",
          "type": "uint256"
        }
      ],
      "name": "ownerOf",
      "outputs": [
        {
          "internalType": "address",
          "name": "",
          "type": "address"
        }
      ],
      "stateMutability": "view",
      "type": "function"
    },
    {
      "inputs": [
        {
          "internalType": "bytes32",
          "name": "role",
          "type": "bytes32"
        },
        {
          "internalType": "address",
          "name": "callerConfirmation",
          "type": "address"
        }
      ],
      "name": "renounceRole",
      "outputs": [],
      "stateMutability": "nonpayable",
      "type": "function"
    },
    {
      "inputs": [
        {
          "internalType": "bytes32",
          "name": "role",
          "type": "bytes32"
        },
        {
          "internalType": "address",
          "name": "account",
          "type": "address"
        }
      ],
      "name": "revokeRole",
      "outputs": [],
      "stateMutability": "nonpayable",
      "type": "function"
    },
    {
      "inputs": [
        {
          "internalType": "address",
          "name": "from",
          "type": "address"
        },
        {
          "internalType": "address",
          "name": "to",
          "type": "address"
        },
        {
          "internalType": "uint256",
          "name": "tokenId",
          "type": "uint256"
        }
      ],
      "name": "safeTransferFrom",
      "outputs": [],
      "stateMutability": "nonpayable",
      "type": "function"
    },
    {
      "inputs": [
        {
          "internalType": "address",
          "name": "from",
          "type": "address"
        },
        {
          "internalType": "address",
          "name": "to",
          "type": "address"
        },
        {
          "internalType": "uint256",
          "name": "tokenId",
          "type": "uint256"
        },
        {
          "internalType": "bytes",
          "name": "data",
          "type": "bytes"
        }
      ],
      "name": "safeTransferFrom",
      "outputs": [],
      "stateMutability": "nonpayable",
      "type": "function"
    },
    {
      "inputs": [
        {
          "internalType": "uint256",
          "name": "",
          "type": "uint256"
        },
        {
          "internalType": "uint256",
          "name": "",
          "type": "uint256"
        }
      ],
      "name": "serviceHistory",
      "outputs": [
        {
          "internalType": "string",
          "name": "details",
          "type": "string"
        },
        {
          "internalType": "uint256",
          "name": "timestamp",
          "type": "uint256"
        },
        {
          "internalType": "string",
          "name": "dataHash",
          "type": "string"
        }
      ],
      "stateMutability": "view",
      "type": "function"
    },
    {
      "inputs": [
        {
          "internalType": "address",
          "name": "operator",
          "type": "address"
        },
        {
          "internalType": "bool",
          "name": "approved",
          "type": "bool"
        }
      ],
      "name": "setApprovalForAll",
      "outputs": [],
      "stateMutability": "nonpayable",
      "type": "function"
    },
    {
      "inputs": [
        {
          "internalType": "bytes4",
          "name": "interfaceId",
          "type": "bytes4"
        }
      ],
      "name": "supportsInterface",
      "outputs": [
        {
          "internalType": "bool",
          "name": "",
          "type": "bool"
        }
      ],
      "stateMutability": "view",
      "type": "function"
    },
    {
      "inputs": [],
      "name": "symbol",
      "outputs": [
        {
          "internalType": "string",
          "name": "",
          "type": "string"
        }
      ],
      "stateMutability": "view",
      "type": "function"
    },
    {
      "inputs": [
        {
          "internalType": "uint256",
          "name": "index",
          "type": "uint256"
        }
      ],
      "name": "tokenByIndex",
      "outputs": [
        {
          "internalType": "uint256",
          "name": "",
          "type": "uint256"
        }
      ],
      "stateMutability": "view",
      "type": "function"
    },
    {
      "inputs": [
        {
          "internalType": "address",
          "name": "owner",
          "type": "address"
        },
        {
          "internalType": "uint256",
          "name": "index",
          "type": "uint256"
        }
      ],
      "name": "tokenOfOwnerByIndex",
      "outputs": [
        {
          "internalType": "uint256",
          "name": "",
          "type": "uint256"
        }
      ],
      "stateMutability": "view",
      "type": "function"
    },
    {
      "inputs": [
        {
          "internalType": "uint256",
          "name": "tokenId",
          "type": "uint256"
        }
      ],
      "name": "tokenURI",
      "outputs": [
        {
          "internalType": "string",
          "name": "",
          "type": "string"
        }
      ],
      "stateMutability": "view",
      "type": "function"
    },
    {
      "inputs": [],
      "name": "totalSupply",
      "outputs": [
        {
          "internalType": "uint256",
          "name": "",
          "type": "uint256"
        }
      ],
      "stateMutability": "view",
      "type": "function"
    },
    {
      "inputs": [
        {
          "internalType": "address",
          "name": "from",
          "type": "address"
        },
        {
          "internalType": "address",
          "name": "to",
          "type": "address"
        },
        {
          "internalType": "uint256",
          "name": "tokenId",
          "type": "uint256"
        }
      ],
      "name": "transferFrom",
      "outputs": [],
      "stateMutability": "nonpayable",
      "type": "function"
    }
  ],
  "bytecode": "0x608060405234801561001057600080fd5b506040518060400160405280601581526020017f56656869636c652050617373706f727420694e4654000000000000000000000081525060405180604001604052806005815260200164565041535360d81b8152508160009081610074919061023c565b506001610081828261023c565b50610091915060009050336100ed565b506100bc7fcf75f067314df4d0527f2a9e12148d8bd7c8a3f7235b2171d24fa195d2c3ecb9336100ed565b506100e77fe00629f427c6136ae9b856b472ff74184d9d0bee21b9336d8fbb33b66079065a336100ed565b506102fa565b6000828152600a602090815260408083206001600160a01b038516845290915281205460ff16610193576000838152600a602090815260408083206001600160a01b03861684529091529020805460ff1916600117905561014b3390565b6001600160a01b0316826001600160a01b0316847f2f8788117e7eff1d82e926ec794901d17c78024a50270940304540a733656f0d60405160405180910390a4506001610197565b5060005b92915050565b634e487b7160e01b600052604160045260246000fd5b600181811c908216806101c757607f821691505b6020821081036101e757634e487b7160e01b600052602260045260246000fd5b50919050565b601f82111561023757806000526020600020601f840160051c810160208510156102145750805b601f840160051c820191505b818110156102345760008155600101610220565b50505b505050565b81516001600160401b038111156102555761025561019d565b6102698161026384546101b3565b846101ed565b6020601f82116001811461029d57600083156102855750848201515b600019600385901b1c1916600184901b178455610234565b600084815260208120601f198516915b828110156102cd57878501518255602094850194600190920191016102ad565b50848210156102eb5786840151600019600387901b60f8161c191681555b50505050600190811b01905550565b613bdf806103096000396000f3fe60806040526004361061023b5760003560e01c806370a082311161012e578063c82205de116100ab578063d759ee591161006f578063d759ee591461071a578063defee5db1461073a578063e985e9c51461075a578063f3cd27421461077a578063fdc0660b146107a957600080fd5b8063c82205de1461066d578063c87b56dd1461068d578063cb917b9c146106ad578063cc0303a0146106cd578063d547741f146106fa57600080fd5b8063a217fddf116100f2578063a217fddf146105e0578063a22cb465146105f5578063a9ff814114610615578063b88d4fde1461062d578063b8d8e66f1461064d57600080fd5b806370a082311461054b57806391d148541461056b57806394383f141461058b57806394aa46f4146105ab57806395d89b41146105cb57600080fd5b80632ebfb1f3116101bc57806342842e0e1161018057806342842e0e146104a45780634f6ccce7146104c457806351ed8288146104e45780636352211e146104f75780636b6463591461051757600080fd5b80632ebfb1f3146103de5780632f2ff15d146104105780632f745c591461043057806334d6ff4c1461045057806336568abe1461048457600080fd5b80630e5ec651116102035780630e5ec6511461031e578063115bc9361461034c57806318160ddd1461037957806323b872dd1461038e578063248a9ca3146103ae57600080fd5b806301ffc9a71461024057806304314f491461027557806306fdde03146102a2578063081812fc146102c4578063095ea7b3146102fc575b600080fd5b34801561024c57600080fd5b5061026061025b366004613214565b6107bf565b60405190151581526020015b60405180910390f35b34801561028157600080fd5b50610295610290366004613231565b6107d0565b60405161026c919061329a565b3480156102ae57600080fd5b506102b7610ad4565b60405161026c9190613352565b3480156102d057600080fd5b506102e46102df366004613231565b610b66565b6040516001600160a01b03909116815260200161026c565b34801561030857600080fd5b5061031c610317366004613381565b610b8f565b005b34801561032a57600080fd5b5061033e610339366004613231565b610b9e565b60405190815260200161026c565b34801561035857600080fd5b5061033e610367366004613231565b600c6020526000908152604090205481565b34801561038557600080fd5b5060085461033e565b34801561039a57600080fd5b5061031c6103a93660046133ab565b610bbd565b3480156103ba57600080fd5b5061033e6103c9366004613231565b6000908152600a602052604090206001015490565b3480156103ea57600080fd5b506103fe6103f9366004613231565b610c4d565b60405160ff909116815260200161026c565b34801561041c57600080fd5b5061031c61042b3660046133e8565b610f98565b34801561043c57600080fd5b5061033e61044b366004613381565b610fbd565b34801561045c57600080fd5b5061033e7fcf75f067314df4d0527f2a9e12148d8bd7c8a3f7235b2171d24fa195d2c3ecb981565b34801561049057600080fd5b5061031c61049f3660046133e8565b611022565b3480156104b057600080fd5b5061031c6104bf3660046133ab565b61105a565b3480156104d057600080fd5b5061033e6104df366004613231565b611075565b61031c6104f2366004613231565b6110ce565b34801561050357600080fd5b506102e4610512366004613231565b6113ef565b34801561052357600080fd5b5061033e7fe00629f427c6136ae9b856b472ff74184d9d0bee21b9336d8fbb33b66079065a81565b34801561055757600080fd5b5061033e610566366004613414565b6113fa565b34801561057757600080fd5b506102606105863660046133e8565b611442565b34801561059757600080fd5b5061031c6105a636600461342f565b61146d565b3480156105b757600080fd5b5061033e6105c6366004613501565b61157d565b3480156105d757600080fd5b506102b76116df565b3480156105ec57600080fd5b5061033e600081565b34801561060157600080fd5b5061031c6106103660046135ef565b6116ee565b34801561062157600080fd5b5061033e6301e1338081565b34801561063957600080fd5b5061031c61064836600461362b565b6116f9565b34801561065957600080fd5b5061031c610668366004613414565b611711565b34801561067957600080fd5b5061031c6106883660046136a7565b611746565b34801561069957600080fd5b506102b76106a8366004613231565b6118f4565b3480156106b957600080fd5b5061031c6106c8366004613231565b611c6f565b3480156106d957600080fd5b506106ed6106e836600461342f565b611d65565b60405161026c9190613717565b34801561070657600080fd5b5061031c6107153660046133e8565b611f70565b34801561072657600080fd5b506102b7610735366004613231565b611f95565b34801561074657600080fd5b5061031c610755366004613414565b6122d3565b34801561076657600080fd5b5061026061077536600461375a565b612308565b34801561078657600080fd5b5061079a61079536600461342f565b612336565b60405161026c93929190613784565b3480156107b557600080fd5b5061033e61271081565b60006107ca8261248d565b92915050565b610826604051806101400160405280606081526020016060815260200160608152602001600081526020016000815260200160008152602001600081526020016000815260200160008152602001606081525090565b61082f826113ef565b506000828152600d60205260409081902081516101408101909252805482908290610859906137b9565b80601f0160208091040260200160405190810160405280929190818152602001828054610885906137b9565b80156108d25780601f106108a7576101008083540402835291602001916108d2565b820191906000526020600020905b8154815290600101906020018083116108b557829003601f168201915b505050505081526020016001820180546108eb906137b9565b80601f0160208091040260200160405190810160405280929190818152602001828054610917906137b9565b80156109645780601f1061093957610100808354040283529160200191610964565b820191906000526020600020905b81548152906001019060200180831161094757829003601f168201915b5050505050815260200160028201805461097d906137b9565b80601f01602080910402602001604051908101604052809291908181526020018280546109a9906137b9565b80156109f65780601f106109cb576101008083540402835291602001916109f6565b820191906000526020600020905b8154815290600101906020018083116109d957829003601f168201915b50505050508152602001600382015481526020016004820154815260200160058201548152602001600682015481526020016007820154815260200160088201548152602001600982018054610a4b906137b9565b80601f0160208091040260200160405190810160405280929190818152602001828054610a77906137b9565b8015610ac45780601f10610a9957610100808354040283529160200191610ac4565b820191906000526020600020905b815481529060010190602001808311610aa757829003601f168201915b5050505050815250509050919050565b606060008054610ae3906137b9565b80601f0160208091040260200160405190810160405280929190818152602001828054610b0f906137b9565b8015610b5c5780601f10610b3157610100808354040283529160200191610b5c565b820191906000526020600020905b815481529060010190602001808311610b3f57829003601f168201915b5050505050905090565b6000610b71826124b2565b506000828152600460205260409020546001600160a01b03166107ca565b610b9a8282336124eb565b5050565b6000610ba9826113ef565b50506000908152600e602052604090205490565b6001600160a01b038216610bec57604051633250574960e11b8152600060048201526024015b60405180910390fd5b6000610bf98383336124f8565b9050836001600160a01b0316816001600160a01b031614610c47576040516364283d7b60e01b81526001600160a01b0380861660048301526024820184905282166044820152606401610be3565b50505050565b6000610c58826113ef565b506000828152600d602052604080822081516101408101909252805482908290610c81906137b9565b80601f0160208091040260200160405190810160405280929190818152602001828054610cad906137b9565b8015610cfa5780601f10610ccf57610100808354040283529160200191610cfa565b820191906000526020600020905b815481529060010190602001808311610cdd57829003601f168201915b50505050508152602001600182018054610d13906137b9565b80601f0160208091040260200160405190810160405280929190818152602001828054610d3f906137b9565b8015610d8c5780601f10610d6157610100808354040283529160200191610d8c565b820191906000526020600020905b815481529060010190602001808311610d6f57829003601f168201915b50505050508152602001600282018054610da5906137b9565b80601f0160208091040260200160405190810160405280929190818152602001828054610dd1906137b9565b8015610e1e5780601f10610df357610100808354040283529160200191610e1e565b820191906000526020600020905b815481529060010190602001808311610e0157829003601f168201915b50505050508152602001600382015481526020016004820154815260200160058201548152602001600682015481526020016007820154815260200160088201548152602001600982018054610e73906137b9565b80601f0160208091040260200160405190810160405280929190818152602001828054610e9f906137b9565b8015610eec5780601f10610ec157610100808354040283529160200191610eec565b820191906000526020600020905b815481529060010190602001808311610ecf57829003601f168201915b505050919092525050506000848152600e60205260409020549091506064610f196301e133806002613809565b836101000151610f299190613820565b421115610f3e57610f3b601982613833565b90505b610f4b6127106002613809565b8360e00151610f5a9190613820565b8360c001511115610f7357610f70601482613833565b90505b6005821115610f8057600a015b60648160ff161115610f90575060645b949350505050565b6000828152600a6020526040902060010154610fb3816125cf565b610c4783836125dc565b6000610fc8836113fa565b8210610ff95760405163295f44f760e21b81526001600160a01b038416600482015260248101839052604401610be3565b506001600160a01b03919091166000908152600660209081526040808320938352929052205490565b6001600160a01b038116331461104b5760405163334bd91960e11b815260040160405180910390fd5b6110558282612670565b505050565b611055838383604051806020016040528060008152506116f9565b600061108060085490565b82106110a95760405163295f44f760e21b81526000600482015260248101839052604401610be3565b600882815481106110bc576110bc61384c565b90600052602060002001549050919050565b6000818152600c6020526040812054906110e7836113ef565b9050600082116111435760405162461bcd60e51b815260206004820152602160248201527f56656869636c6550617373706f7274694e46543a206e6f7420666f722073616c6044820152606560f81b6064820152608401610be3565b813410156111a55760405162461bcd60e51b815260206004820152602960248201527f56656869636c6550617373706f7274694e46543a20696e73756666696369656e6044820152681d081c185e5b595b9d60ba1b6064820152608401610be3565b336001600160a01b038216036112125760405162461bcd60e51b815260206004820152602c60248201527f56656869636c6550617373706f7274694e46543a2063616e6e6f74206275792060448201526b1e5bdd5c881bdddb8813919560a21b6064820152608401610be3565b6000838152600c6020526040808220829055516001600160a01b0383169084908381818185875af1925050503d806000811461126a576040519150601f19603f3d011682016040523d82523d6000602084013e61126f565b606091505b50509050806112cc5760405162461bcd60e51b815260206004820152602360248201527f56656869636c6550617373706f7274694e46543a207061796d656e74206661696044820152621b195960ea1b6064820152608401610be3565b6112e7823386604051806020016040528060008152506126dd565b8234111561139b576000336112fc8534613862565b604051600081818185875af1925050503d8060008114611338576040519150601f19603f3d011682016040523d82523d6000602084013e61133d565b606091505b50509050806113995760405162461bcd60e51b815260206004820152602260248201527f56656869636c6550617373706f7274694e46543a20726566756e64206661696c604482015261195960f21b6064820152608401610be3565b505b336001600160a01b0316826001600160a01b0316857f3fb02bfbf01f7dc3a4c6903acc6b06ca1d9af7647282593f46cbacefc288b602866040516113e191815260200190565b60405180910390a450505050565b60006107ca826124b2565b60006001600160a01b038216611426576040516322718ad960e21b815260006004820152602401610be3565b506001600160a01b031660009081526003602052604090205490565b6000918252600a602090815260408084206001600160a01b0393909316845291905290205460ff1690565b33611477836113ef565b6001600160a01b0316146114cd5760405162461bcd60e51b815260206004820152601e60248201527f56656869636c6550617373706f7274694e46543a206e6f74206f776e657200006044820152606401610be3565b6000811161152c5760405162461bcd60e51b815260206004820152602660248201527f56656869636c6550617373706f7274694e46543a207072696365206d7573742060448201526506265203e20360d41b6064820152608401610be3565b6000828152600c6020526040908190208290555182907f1ea45e30b31292f9d7c5d37d275b2feca555f13f47dce0fdea2f47e8852ecd78906115719084815260200190565b60405180910390a25050565b600b5460009061158d8a826126e8565b6040518061014001604052808a815260200189815260200188815260200187815260200186815260200142815260200185815260200185815260200142815260200184815250600d600083815260200190815260200160002060008201518160000190816115fb91906138bc565b506020820151600182019061161090826138bc565b506040820151600282019061162590826138bc565b50606082015160038201556080820151600482015560a0820151600582015560c0820151600682015560e082015160078201556101008201516008820155610120820151600982019061167890826138bc565b5050600b80549150600061168b8361397b565b9190505550896001600160a01b0316817f06becd955c918828f6e985541acbf49cc842c9e9bd569fffc7698e721ef135758b6040516116ca9190613352565b60405180910390a39998505050505050505050565b606060018054610ae3906137b9565b610b9a338383612702565b611704848484610bbd565b610c4733858585856127a1565b600061171c816125cf565b6110557fcf75f067314df4d0527f2a9e12148d8bd7c8a3f7235b2171d24fa195d2c3ecb9836125dc565b61174f846113ef565b5060008251116117af5760405162461bcd60e51b815260206004820152602560248201527f56656869636c6550617373706f7274694e46543a2064657461696c73207265716044820152641d5a5c995960da1b6064820152608401610be3565b6000848152600d60205260409020600601548310156118255760405162461bcd60e51b815260206004820152602c60248201527f56656869636c6550617373706f7274694e46543a206d696c656167652063616e60448201526b6e6f7420646563726561736560a01b6064820152608401610be3565b6000848152600d602090815260408083206006810187905560078101879055426008909101819055600e8352818420825160608101845287815280850192909252918101859052815460018101835591845291909220815191926003020190819061189090826138bc565b5060208201516001820155604082015160028201906118af90826138bc565b505050837fcfb9b910c9407317c179d9877eeb8078df0341764cfd7636229094204af73be78484846040516118e693929190613994565b60405180910390a250505050565b6000818152600260205260409020546060906001600160a01b031661196d5760405162461bcd60e51b815260206004820152602960248201527f56656869636c6550617373706f7274694e46543a20746f6b656e20646f6573206044820152681b9bdd08195e1a5cdd60ba1b6064820152608401610be3565b6000828152600d602052604080822081516101408101909252805482908290611995906137b9565b80601f01602080910402602001604051908101604052809291908181526020018280546119c1906137b9565b8015611a0e5780601f106119e357610100808354040283529160200191611a0e565b820191906000526020600020905b8154815290600101906020018083116119f157829003601f168201915b50505050508152602001600182018054611a27906137b9565b80601f0160208091040260200160405190810160405280929190818152602001828054611a53906137b9565b8015611aa05780601f10611a7557610100808354040283529160200191611aa0565b820191906000526020600020905b815481529060010190602001808311611a8357829003601f168201915b50505050508152602001600282018054611ab9906137b9565b80601f0160208091040260200160405190810160405280929190818152602001828054611ae5906137b9565b8015611b325780601f10611b0757610100808354040283529160200191611b32565b820191906000526020600020905b815481529060010190602001808311611b1557829003601f168201915b50505050508152602001600382015481526020016004820154815260200160058201548152602001600682015481526020016007820154815260200160088201548152602001600982018054611b87906137b9565b80601f0160208091040260200160405190810160405280929190818152602001828054611bb3906137b9565b8015611c005780601f10611bd557610100808354040283529160200191611c00565b820191906000526020600020905b815481529060010190602001808311611be357829003601f168201915b50505050508152505090506000611c16846128cc565b826101200151604051602001611c2d9291906139bf565b6040516020818303038152906040529050611c478161295f565b604051602001611c579190613a9c565b60405160208183030381529060405292505050919050565b33611c79826113ef565b6001600160a01b031614611ccf5760405162461bcd60e51b815260206004820152601e60248201527f56656869636c6550617373706f7274694e46543a206e6f74206f776e657200006044820152606401610be3565b6000818152600c6020526040902054611d2a5760405162461bcd60e51b815260206004820152601f60248201527f56656869636c6550617373706f7274694e46543a206e6f74206c6973746564006044820152606401610be3565b6000818152600c60205260408082208290555182917fc40fdc946efe80191c467f60727c4abc08254a056035d467a4516a86005ab76391a250565b611d8960405180606001604052806060815260200160008152602001606081525090565b611d92836113ef565b506000838152600e60205260409020548210611e015760405162461bcd60e51b815260206004820152602860248201527f56656869636c6550617373706f7274694e46543a20696e646578206f7574206f6044820152676620626f756e647360c01b6064820152608401610be3565b6000838152600e60205260409020805483908110611e2157611e2161384c565b9060005260206000209060030201604051806060016040529081600082018054611e4a906137b9565b80601f0160208091040260200160405190810160405280929190818152602001828054611e76906137b9565b8015611ec35780601f10611e9857610100808354040283529160200191611ec3565b820191906000526020600020905b815481529060010190602001808311611ea657829003601f168201915b5050505050815260200160018201548152602001600282018054611ee6906137b9565b80601f0160208091040260200160405190810160405280929190818152602001828054611f12906137b9565b8015611f5f5780601f10611f3457610100808354040283529160200191611f5f565b820191906000526020600020905b815481529060010190602001808311611f4257829003601f168201915b505050505081525050905092915050565b6000828152600a6020526040902060010154611f8b816125cf565b610c478383612670565b6060611fa0826113ef565b506000828152600d602052604080822081516101408101909252805482908290611fc9906137b9565b80601f0160208091040260200160405190810160405280929190818152602001828054611ff5906137b9565b80156120425780601f1061201757610100808354040283529160200191612042565b820191906000526020600020905b81548152906001019060200180831161202557829003601f168201915b5050505050815260200160018201805461205b906137b9565b80601f0160208091040260200160405190810160405280929190818152602001828054612087906137b9565b80156120d45780601f106120a9576101008083540402835291602001916120d4565b820191906000526020600020905b8154815290600101906020018083116120b757829003601f168201915b505050505081526020016002820180546120ed906137b9565b80601f0160208091040260200160405190810160405280929190818152602001828054612119906137b9565b80156121665780601f1061213b57610100808354040283529160200191612166565b820191906000526020600020905b81548152906001019060200180831161214957829003601f168201915b505050505081526020016003820154815260200160048201548152602001600582015481526020016006820154815260200160078201548152602001600882015481526020016009820180546121bb906137b9565b80601f01602080910402602001604051908101604052809291908181526020018280546121e7906137b9565b80156122345780601f1061220957610100808354040283529160200191612234565b820191906000526020600020905b81548152906001019060200180831161221757829003601f168201915b505050505081525050905060006127108260e001516122539190613820565b8260c001511015905060006301e133808361010001516122739190613820565b421015905081806122815750805b6122a557604051806040016040528060028152602001614f4b60f01b8152506122ca565b6040518060400160405280600b81526020016a536572766963652044756560a81b8152505b95945050505050565b60006122de816125cf565b6110557fe00629f427c6136ae9b856b472ff74184d9d0bee21b9336d8fbb33b66079065a836125dc565b6001600160a01b03918216600090815260056020908152604080832093909416825291909152205460ff1690565b600e602052816000526040600020818154811061235257600080fd5b906000526020600020906003020160009150915050806000018054612376906137b9565b80601f01602080910402602001604051908101604052809291908181526020018280546123a2906137b9565b80156123ef5780601f106123c4576101008083540402835291602001916123ef565b820191906000526020600020905b8154815290600101906020018083116123d257829003601f168201915b50505050509080600101549080600201805461240a906137b9565b80601f0160208091040260200160405190810160405280929190818152602001828054612436906137b9565b80156124835780601f1061245857610100808354040283529160200191612483565b820191906000526020600020905b81548152906001019060200180831161246657829003601f168201915b5050505050905083565b60006001600160e01b03198216637965db0b60e01b14806107ca57506107ca82612985565b6000818152600260205260408120546001600160a01b0316806107ca57604051637e27328960e01b815260048101849052602401610be3565b61105583838360016129aa565b600080612506858585612ab0565b90506001600160a01b0381166125635761255e84600880546000838152600960205260408120829055600182018355919091527ff3f7a9fe364faab93b216da50a3214154f22a0a2b415b23a84c8169e8b636ee30155565b612586565b846001600160a01b0316816001600160a01b031614612586576125868185612ba9565b6001600160a01b0385166125a25761259d84612c2a565b6125c5565b846001600160a01b0316816001600160a01b0316146125c5576125c58585612cd9565b90505b9392505050565b6125d98133612d29565b50565b60006125e88383611442565b612668576000838152600a602090815260408083206001600160a01b03861684529091529020805460ff191660011790556126203390565b6001600160a01b0316826001600160a01b0316847f2f8788117e7eff1d82e926ec794901d17c78024a50270940304540a733656f0d60405160405180910390a45060016107ca565b5060006107ca565b600061267c8383611442565b15612668576000838152600a602090815260408083206001600160a01b0386168085529252808320805460ff1916905551339286917ff6391f5c32d9c69d2a47ea670b442974b53935d1edc7fd64eb21e047a839171b9190a45060016107ca565b611704848484612d62565b610b9a828260405180602001604052806000815250612e12565b6001600160a01b03821661273457604051630b61174360e31b81526001600160a01b0383166004820152602401610be3565b6001600160a01b03838116600081815260056020908152604080832094871680845294825291829020805460ff191686151590811790915591519182527f17307eab39ab6107e8899845ad3d59bd9653f200f220920489ca2b5937696c31910160405180910390a3505050565b6001600160a01b0383163b156128c557604051630a85bd0160e11b81526001600160a01b0384169063150b7a02906127e3908890889087908790600401613ae1565b6020604051808303816000875af192505050801561281e575060408051601f3d908101601f1916820190925261281b91810190613b14565b60015b612887573d80801561284c576040519150601f19603f3d011682016040523d82523d6000602084013e612851565b606091505b50805160000361287f57604051633250574960e11b81526001600160a01b0385166004820152602401610be3565b805160208201fd5b6001600160e01b03198116630a85bd0160e11b146128c357604051633250574960e11b81526001600160a01b0385166004820152602401610be3565b505b5050505050565b606060006128d983612e2a565b600101905060008167ffffffffffffffff8111156128f9576128f9613451565b6040519080825280601f01601f191660200182016040528015612923576020820181803683370190505b5090508181016020015b600019016f181899199a1a9b1b9c1cb0b131b232b360811b600a86061a8153600a850494508461292d57509392505050565b60606107ca82604051806060016040528060408152602001613b6a604091396001612f02565b60006001600160e01b0319821663780e9d6360e01b14806107ca57506107ca82613082565b80806129be57506001600160a01b03821615155b15612a805760006129ce846124b2565b90506001600160a01b038316158015906129fa5750826001600160a01b0316816001600160a01b031614155b8015612a0d5750612a0b8184612308565b155b15612a365760405163a9fbf51f60e01b81526001600160a01b0384166004820152602401610be3565b8115612a7e5783856001600160a01b0316826001600160a01b03167f8c5be1e5ebec7d5bd14f71427d1e84f3dd0314c0f7b2291e5b200ac8c7c3b92560405160405180910390a45b505b5050600090815260046020526040902080546001600160a01b0319166001600160a01b0392909216919091179055565b6000828152600260205260408120546001600160a01b0390811690831615612add57612add8184866130d2565b6001600160a01b03811615612b1b57612afa6000856000806129aa565b6001600160a01b038116600090815260036020526040902080546000190190555b6001600160a01b03851615612b4a576001600160a01b0385166000908152600360205260409020805460010190555b60008481526002602052604080822080546001600160a01b0319166001600160a01b0389811691821790925591518793918516917fddf252ad1be2c89b69c2b068fc378daa952ba7f163c4a11628f55a4df523b3ef91a4949350505050565b6000612bb4836113fa565b6000838152600760209081526040808320546001600160a01b0388168452600690925290912091925090818314612c0b57600083815260208281526040808320548584528184208190558352600790915290208290555b6000938452600760209081526040808620869055938552525081205550565b600854600090612c3c90600190613862565b60008381526009602052604081205460088054939450909284908110612c6457612c6461384c565b906000526020600020015490508060088381548110612c8557612c8561384c565b6000918252602080832090910192909255828152600990915260408082208490558582528120556008805480612cbd57612cbd613b31565b6001900381819060005260206000200160009055905550505050565b60006001612ce6846113fa565b612cf09190613862565b6001600160a01b039093166000908152600660209081526040808320868452825280832085905593825260079052919091209190915550565b612d338282611442565b610b9a5760405163e2517d3f60e01b81526001600160a01b038216600482015260248101839052604401610be3565b6001600160a01b038216612d8c57604051633250574960e11b815260006004820152602401610be3565b6000612d9a838360006124f8565b90506001600160a01b038116612dc657604051637e27328960e01b815260048101839052602401610be3565b836001600160a01b0316816001600160a01b031614610c47576040516364283d7b60e01b81526001600160a01b0380861660048301526024820184905282166044820152606401610be3565b612e1c8383613136565b6110553360008585856127a1565b60008072184f03e93ff9f4daa797ed6e38ed64bf6a1f0160401b8310612e695772184f03e93ff9f4daa797ed6e38ed64bf6a1f0160401b830492506040015b6d04ee2d6d415b85acef81000000008310612e95576d04ee2d6d415b85acef8100000000830492506020015b662386f26fc100008310612eb357662386f26fc10000830492506010015b6305f5e1008310612ecb576305f5e100830492506008015b6127108310612edf57612710830492506004015b60648310612ef1576064830492506002015b600a83106107ca5760010192915050565b60608351600003612f2257506040805160208101909152600081526125c8565b600082612f5357600385516004612f399190613809565b612f44906002613820565b612f4e9190613b47565b612f78565b600385516002612f639190613820565b612f6d9190613b47565b612f78906004613809565b905060008167ffffffffffffffff811115612f9557612f95613451565b6040519080825280601f01601f191660200182016040528015612fbf576020820181803683370190505b50905060018501602082018788518901602081018051600082525b82841015613035576003840193508351603f8160121c168701518653600186019550603f81600c1c168701518653600186019550603f8160061c168701518653600186019550603f8116870151865350600185019450612fda565b90525050851561307657600388510660018114613059576002811461306c57613074565b603d6001830353603d6002830353613074565b603d60018303535b505b50909695505050505050565b60006001600160e01b031982166380ac58cd60e01b14806130b357506001600160e01b03198216635b5e139f60e01b145b806107ca57506301ffc9a760e01b6001600160e01b03198316146107ca565b6130dd83838361319b565b611055576001600160a01b03831661310b57604051637e27328960e01b815260048101829052602401610be3565b60405163177e802f60e01b81526001600160a01b038316600482015260248101829052604401610be3565b6001600160a01b03821661316057604051633250574960e11b815260006004820152602401610be3565b600061316e838360006124f8565b90506001600160a01b03811615611055576040516339e3563760e11b815260006004820152602401610be3565b60006001600160a01b038316158015906125c55750826001600160a01b0316846001600160a01b031614806131d557506131d58484612308565b806125c55750506000908152600460205260409020546001600160a01b03908116911614919050565b6001600160e01b0319811681146125d957600080fd5b60006020828403121561322657600080fd5b81356125c8816131fe565b60006020828403121561324357600080fd5b5035919050565b60005b8381101561326557818101518382015260200161324d565b50506000910152565b6000815180845261328681602086016020860161324a565b601f01601f19169290920160200192915050565b602081526000825161014060208401526132b861016084018261326e565b90506020840151601f198483030160408501526132d5828261326e565b9150506040840151601f198483030160608501526132f3828261326e565b91505060608401516080840152608084015160a084015260a084015160c084015260c084015160e084015260e0840151610100840152610100840151610120840152610120840151601f19848303016101408501526122ca828261326e565b6020815260006125c8602083018461326e565b80356001600160a01b038116811461337c57600080fd5b919050565b6000806040838503121561339457600080fd5b61339d83613365565b946020939093013593505050565b6000806000606084860312156133c057600080fd5b6133c984613365565b92506133d760208501613365565b929592945050506040919091013590565b600080604083850312156133fb57600080fd5b8235915061340b60208401613365565b90509250929050565b60006020828403121561342657600080fd5b6125c882613365565b6000806040838503121561344257600080fd5b50508035926020909101359150565b634e487b7160e01b600052604160045260246000fd5b60008067ffffffffffffffff84111561348257613482613451565b50604051601f19601f85018116603f0116810181811067ffffffffffffffff821117156134b1576134b1613451565b6040528381529050808284018510156134c957600080fd5b83836020830137600060208583010152509392505050565b600082601f8301126134f257600080fd5b6125c883833560208501613467565b600080600080600080600080610100898b03121561351e57600080fd5b61352789613365565b9750602089013567ffffffffffffffff81111561354357600080fd5b61354f8b828c016134e1565b975050604089013567ffffffffffffffff81111561356c57600080fd5b6135788b828c016134e1565b965050606089013567ffffffffffffffff81111561359557600080fd5b6135a18b828c016134e1565b9550506080890135935060a0890135925060c0890135915060e089013567ffffffffffffffff8111156135d357600080fd5b6135df8b828c016134e1565b9150509295985092959890939650565b6000806040838503121561360257600080fd5b61360b83613365565b91506020830135801515811461362057600080fd5b809150509250929050565b6000806000806080858703121561364157600080fd5b61364a85613365565b935061365860208601613365565b925060408501359150606085013567ffffffffffffffff81111561367b57600080fd5b8501601f8101871361368c57600080fd5b61369b87823560208401613467565b91505092959194509250565b600080600080608085870312156136bd57600080fd5b8435935060208501359250604085013567ffffffffffffffff8111156136e257600080fd5b6136ee878288016134e1565b925050606085013567ffffffffffffffff81111561370b57600080fd5b61369b878288016134e1565b602081526000825160606020840152613733608084018261326e565b9050602084015160408401526040840151601f198483030160608501526122ca828261326e565b6000806040838503121561376d57600080fd5b61377683613365565b915061340b60208401613365565b606081526000613797606083018661326e565b84602084015282810360408401526137af818561326e565b9695505050505050565b600181811c908216806137cd57607f821691505b6020821081036137ed57634e487b7160e01b600052602260045260246000fd5b50919050565b634e487b7160e01b600052601160045260246000fd5b80820281158282048414176107ca576107ca6137f3565b808201808211156107ca576107ca6137f3565b60ff82811682821603908111156107ca576107ca6137f3565b634e487b7160e01b600052603260045260246000fd5b818103818111156107ca576107ca6137f3565b601f82111561105557806000526020600020601f840160051c8101602085101561389c5750805b601f840160051c820191505b818110156128c557600081556001016138a8565b815167ffffffffffffffff8111156138d6576138d6613451565b6138ea816138e484546137b9565b84613875565b6020601f82116001811461391e57600083156139065750848201515b600019600385901b1c1916600184901b1784556128c5565b600084815260208120601f198516915b8281101561394e578785015182556020948501946001909201910161392e565b508482101561396c5786840151600019600387901b60f8161c191681555b50505050600190811b01905550565b60006001820161398d5761398d6137f3565b5060010190565b8381526060602082015260006139ad606083018561326e565b82810360408401526137af818561326e565b607b60f81b81527f226e616d65223a2256656869636c652050617373706f72742023000000000000600182015260008351613a0181601b85016020880161324a565b61088b60f21b601b918401918201527f226465736372697074696f6e223a2244796e616d6963204e4654207061737370601d820152721bdc9d08199bdc881d995a1a58db195ccb888b606a1b603d820152681134b6b0b3b2911d1160b91b60508201528351613a7781605984016020880161324a565b61088b60f21b60599290910191820152607d60f81b605b820152605c01949350505050565b7f646174613a6170706c69636174696f6e2f6a736f6e3b6261736536342c000000815260008251613ad481601d85016020870161324a565b91909101601d0192915050565b6001600160a01b03858116825284166020820152604081018390526080606082018190526000906137af9083018461326e565b600060208284031215613b2657600080fd5b81516125c8816131fe565b634e487b7160e01b600052603160045260246000fd5b600082613b6457634e487b7160e01b600052601260045260246000fd5b50049056fe4142434445464748494a4b4c4d4e4f505152535455565758595a6162636465666768696a6b6c6d6e6f707172737475767778797a303132333435363738392b2fa26469706673582212204a513a83b5b2c2b106e274b81e8774dbdbb600cef86f65a863f095f08152eb7864736f6c634300081c0033",
  "linkReferences": {},
  "deployedLinkReferences": {}
}